{
	"Gas.sol": {
		"Gas": {
			"abi": [
				{
					"constant": false,
					"inputs": [],
					"name": "forever",
					"outputs": [],
					"payable": false,
					"stateMutability": "nonpayable",
					"type": "function"
				},
				{
					"constant": true,
					"inputs": [],
					"name": "i",
					"outputs": [
						{
							"internalType": "uint256",
							"name": "",
							"type": "uint256"
						}
					],
					"payable": false,
					"stateMutability": "view",
					"type": "function"
				},
				{
					"constant": true,
					"inputs": [],
					"name": "testGasRefund",
					"outputs": [
						{
							"internalType": "uint256",
							"name": "",
							"type": "uint256"
						}
					],
					"payable": false,
					"stateMutability": "view",
					"type": "function"
				}
			],
			"devdoc": {
				"methods": {}
			},
			"evm": {
				"assembly": "    /* \"Gas.sol\":27:262  contract Gas {\r... */\n  mstore(0x40, 0x80)\n    /* \"Gas.sol\":160:161  0 */\n  0x00\n    /* \"Gas.sol\":144:161  uint public i = 0 */\n  dup1\n  sstore\n    /* \"Gas.sol\":27:262  contract Gas {\r... */\n  callvalue\n    /* \"--CODEGEN--\":8:17   */\n  dup1\n    /* \"--CODEGEN--\":5:7   */\n  iszero\n  tag_1\n  jumpi\n    /* \"--CODEGEN--\":30:31   */\n  0x00\n    /* \"--CODEGEN--\":27:28   */\n  dup1\n    /* \"--CODEGEN--\":20:32   */\n  revert\n    /* \"--CODEGEN--\":5:7   */\ntag_1:\n    /* \"Gas.sol\":27:262  contract Gas {\r... */\n  pop\n  dataSize(sub_0)\n  dup1\n  dataOffset(sub_0)\n  0x00\n  codecopy\n  0x00\n  return\nstop\n\nsub_0: assembly {\n        /* \"Gas.sol\":27:262  contract Gas {\r... */\n      mstore(0x40, 0x80)\n      callvalue\n        /* \"--CODEGEN--\":8:17   */\n      dup1\n        /* \"--CODEGEN--\":5:7   */\n      iszero\n      tag_1\n      jumpi\n        /* \"--CODEGEN--\":30:31   */\n      0x00\n        /* \"--CODEGEN--\":27:28   */\n      dup1\n        /* \"--CODEGEN--\":20:32   */\n      revert\n        /* \"--CODEGEN--\":5:7   */\n    tag_1:\n        /* \"Gas.sol\":27:262  contract Gas {\r... */\n      pop\n      jumpi(tag_2, lt(calldatasize, 0x04))\n      shr(0xe0, calldataload(0x00))\n      dup1\n      0x9ff9a603\n      eq\n      tag_3\n      jumpi\n      dup1\n      0xbf13a859\n      eq\n      tag_4\n      jumpi\n      dup1\n      0xe5aa3d58\n      eq\n      tag_5\n      jumpi\n    tag_2:\n      0x00\n      dup1\n      revert\n        /* \"Gas.sol\":170:259  function forever() public {\r... */\n    tag_3:\n      tag_6\n      tag_7\n      jump\t// in\n    tag_6:\n      stop\n        /* \"Gas.sol\":47:136  function testGasRefund() public view returns (uint) {\r... */\n    tag_4:\n      tag_8\n      tag_9\n      jump\t// in\n    tag_8:\n      mload(0x40)\n      dup1\n      dup3\n      dup2\n      mstore\n      0x20\n      add\n      swap2\n      pop\n      pop\n      mload(0x40)\n      dup1\n      swap2\n      sub\n      swap1\n      return\n        /* \"Gas.sol\":144:161  uint public i = 0 */\n    tag_5:\n      tag_10\n      tag_11\n      jump\t// in\n    tag_10:\n      mload(0x40)\n      dup1\n      dup3\n      dup2\n      mstore\n      0x20\n      add\n      swap2\n      pop\n      pop\n      mload(0x40)\n      dup1\n      swap2\n      sub\n      swap1\n      return\n        /* \"Gas.sol\":170:259  function forever() public {\r... */\n    tag_7:\n        /* \"Gas.sol\":207:252  while(true) {\r... */\n    tag_13:\n        /* \"Gas.sol\":213:217  true */\n      0x01\n        /* \"Gas.sol\":207:252  while(true) {\r... */\n      iszero\n      tag_14\n      jumpi\n        /* \"Gas.sol\":239:240  1 */\n      0x01\n        /* \"Gas.sol\":234:235  i */\n      0x00\n      dup1\n        /* \"Gas.sol\":234:240  i += 1 */\n      dup3\n      dup3\n      sload\n      add\n      swap3\n      pop\n      pop\n      dup2\n      swap1\n      sstore\n      pop\n        /* \"Gas.sol\":207:252  while(true) {\r... */\n      jump(tag_13)\n    tag_14:\n        /* \"Gas.sol\":170:259  function forever() public {\r... */\n      jump\t// out\n        /* \"Gas.sol\":47:136  function testGasRefund() public view returns (uint) {\r... */\n    tag_9:\n        /* \"Gas.sol\":93:97  uint */\n      0x00\n        /* \"Gas.sol\":117:128  tx.gasprice */\n      gasprice\n        /* \"Gas.sol\":110:128  return tx.gasprice */\n      swap1\n      pop\n        /* \"Gas.sol\":47:136  function testGasRefund() public view returns (uint) {\r... */\n      swap1\n      jump\t// out\n        /* \"Gas.sol\":144:161  uint public i = 0 */\n    tag_11:\n      sload(0x00)\n      dup2\n      jump\t// out\n\n    auxdata: 0xa265627a7a72315820719d7cb3c33c0ca6dd7094b8f87509b7af6a0fce355ad3b138f7f93d1fd19e4d64736f6c63430005110032\n}\n",
				"bytecode": {
					"linkReferences": {},
					"object": "60806040526000805534801561001457600080fd5b5060e1806100236000396000f3fe6080604052348015600f57600080fd5b5060043610603c5760003560e01c80639ff9a603146041578063bf13a859146049578063e5aa3d58146065575b600080fd5b60476081565b005b604f609e565b6040518082815260200191505060405180910390f35b606b60a6565b6040518082815260200191505060405180910390f35b5b600115609c57600160008082825401925050819055506082565b565b60003a905090565b6000548156fea265627a7a72315820719d7cb3c33c0ca6dd7094b8f87509b7af6a0fce355ad3b138f7f93d1fd19e4d64736f6c63430005110032",
					"opcodes": "PUSH1 0x80 PUSH1 0x40 MSTORE PUSH1 0x0 DUP1 SSTORE CALLVALUE DUP1 ISZERO PUSH2 0x14 JUMPI PUSH1 0x0 DUP1 REVERT JUMPDEST POP PUSH1 0xE1 DUP1 PUSH2 0x23 PUSH1 0x0 CODECOPY PUSH1 0x0 RETURN INVALID PUSH1 0x80 PUSH1 0x40 MSTORE CALLVALUE DUP1 ISZERO PUSH1 0xF JUMPI PUSH1 0x0 DUP1 REVERT JUMPDEST POP PUSH1 0x4 CALLDATASIZE LT PUSH1 0x3C JUMPI PUSH1 0x0 CALLDATALOAD PUSH1 0xE0 SHR DUP1 PUSH4 0x9FF9A603 EQ PUSH1 0x41 JUMPI DUP1 PUSH4 0xBF13A859 EQ PUSH1 0x49 JUMPI DUP1 PUSH4 0xE5AA3D58 EQ PUSH1 0x65 JUMPI JUMPDEST PUSH1 0x0 DUP1 REVERT JUMPDEST PUSH1 0x47 PUSH1 0x81 JUMP JUMPDEST STOP JUMPDEST PUSH1 0x4F PUSH1 0x9E JUMP JUMPDEST PUSH1 0x40 MLOAD DUP1 DUP3 DUP2 MSTORE PUSH1 0x20 ADD SWAP2 POP POP PUSH1 0x40 MLOAD DUP1 SWAP2 SUB SWAP1 RETURN JUMPDEST PUSH1 0x6B PUSH1 0xA6 JUMP JUMPDEST PUSH1 0x40 MLOAD DUP1 DUP3 DUP2 MSTORE PUSH1 0x20 ADD SWAP2 POP POP PUSH1 0x40 MLOAD DUP1 SWAP2 SUB SWAP1 RETURN JUMPDEST JUMPDEST PUSH1 0x1 ISZERO PUSH1 0x9C JUMPI PUSH1 0x1 PUSH1 0x0 DUP1 DUP3 DUP3 SLOAD ADD SWAP3 POP POP DUP2 SWAP1 SSTORE POP PUSH1 0x82 JUMP JUMPDEST JUMP JUMPDEST PUSH1 0x0 GASPRICE SWAP1 POP SWAP1 JUMP JUMPDEST PUSH1 0x0 SLOAD DUP2 JUMP INVALID LOG2 PUSH6 0x627A7A723158 KECCAK256 PUSH18 0x9D7CB3C33C0CA6DD7094B8F87509B7AF6A0F 0xCE CALLDATALOAD GAS 0xD3 0xB1 CODESIZE 0xF7 0xF9 RETURNDATASIZE 0x1F 0xD1 SWAP15 0x4D PUSH5 0x736F6C6343 STOP SDIV GT STOP ORIGIN "
				},
				"gasEstimates": {
					"creation": {
						"codeDepositCost": "45000",
						"executionCost": "5105",
						"totalCost": "50105"
					},
					"external": {
						"forever()": "infinite",
						"i()": "1027",
						"testGasRefund()": "212"
					}
				},
				"methodIdentifiers": {
					"forever()": "9ff9a603",
					"i()": "e5aa3d58",
					"testGasRefund()": "bf13a859"
				}
			},
			"storageLayout": {
				"storage": [
					{
						"astId": 13,
						"contract": "Gas.sol:Gas",
						"label": "i",
						"offset": 0,
						"slot": "0",
						"type": "t_uint256"
					}
				],
				"types": {
					"t_uint256": {
						"encoding": "inplace",
						"label": "uint256",
						"numberOfBytes": "32"
					}
				}
			},
			"userdoc": {
				"methods": {}
			}
		}
	}
}